:100000000C9434000C943E000C943E000C943E0082
:100010000C943E000C943E000C943E000C943E0068
:100020000C943E000C943E000C943E000C943E0058
:100030000C943E000C943E000C943E000C943E0048
:100040000C943E000C943E000C943E000C943E0038
:100050000C943E000C943E000C943E000C943E0028
:100060000C943E000C943E0011241FBECFEFD8E04C
:10007000DEBFCDBF0E948D000C94BA000C9400002E
:10008000FC01408121E030E002C0220F331F6A955D
:10009000E2F7242B20830895FC01808121E030E0E9
:1000A00002C0220F331F6A95E2F7209582238083D6
:1000B0008181282321830895FC01908121E030E093
:1000C00002C0220F331F6A95E2F72095292320836F
:1000D0000895FC01408121E030E002C0220F331F6F
:1000E0006A95E2F7242B20830895FC01408121E0EA
:1000F00030E002C0220F331F6A95E2F724272083E5
:100100000895FC0190812081892F90E002C095958F
:1001100087952A95E2F78170089565E084E290E082
:100120000E94400065E085E290E00E94690065E081
:1001300087E290E00E94400065E088E290E00E9443
:100140005C0065E08AE290E00E944C002FEF89E6B7
:1001500098E1215080409040E1F700C0000065E048
:1001600089E290E00E94810065E089E290E00E94CF
:080170007500ECCFF894FFCFFD
:00000001FF
