S01000006770696F2D6C65642E7372656303
S11300000C9434000C943E000C943E000C943E007E
S11300100C943E000C943E000C943E000C943E0064
S11300200C943E000C943E000C943E000C943E0054
S11300300C943E000C943E000C943E000C943E0044
S11300400C943E000C943E000C943E000C943E0034
S11300500C943E000C943E000C943E000C943E0024
S11300600C943E000C943E0011241FBECFEFD8E048
S1130070DEBFCDBF0E948E000C94C2000C94000021
S1130080FC01408121E030E002C0220F331F6A9559
S1130090E2F7242B20830895FC01808121E030E0E5
S11300A002C0220F331F6A95E2F7922F909589239D
S11300B080838181282B21830895FC01908121E094
S11300C030E002C0220F331F6A95E2F720952923FE
S11300D020830895FC01408121E030E002C0220F1A
S11300E0331F6A95E2F7242B20830895FC01408195
S11300F021E030E002C0220F331F6A95E2F7242783
S113010020830895FC01808190E002C09595879535
S11301106A95E2F7F1E08F278170089565E084E243
S113012090E00E94400065E085E290E00E945D005E
S113013065E087E290E00E94400065E088E290E09C
S11301400E946A0065E08AE290E00E944C002FEF72
S113015089E698E1215080409040E1F700C000001A
S113016065E089E290E00E948200882381F365E0E3
S113017085E290E00E94760065E088E290E00E94CB
S10B01807600E5CFF894FFCFEF
S9030000FC
