:100000000C9434000C9451000C9451000C94510049
:100010000C9451000C9451000C9451000C9451001C
:100020000C9451000C9451000C9451000C9451000C
:100030000C9451000C948F000C9451000C945100BE
:100040000C94CB000C9451000C9451000C94510072
:100050000C9451000C9451000C9451000C945100DC
:100060000C9451000C94510011241FBECFEFD8E026
:10007000DEBFCDBF11E0A0E0B1E0E8E2F3E002C0F6
:1000800005900D92AE30B107D9F721E0AEE0B1E0B6
:1000900001C01D92A831B207E1F70E9478000C94CC
:1000A00092010C940000FC01408121E030E002C08C
:1000B000220F331F6A95E2F7242B20830895FC0159
:1000C000908121E030E002C0220F331F6A95E2F7F1
:1000D0002095292320830895FC01408121E030E010
:1000E00002C0220F331F6A95E2F7242B2083089564
:1000F0000E940F01E1E8F0E080818B7F80838081A6
:100100008360808385B5897F85BD85B5816085BD28
:10011000EFE6F0E08081816080837894FFCF1F92CA
:100120000F920FB60F9211242F933F934F935F932B
:100130006F937F938F939F93AF93BF93EF93FF93AF
:1001400060E0809112010E941F0180911201909144
:10015000130101968A3091052CF49093130180933A
:10016000120104C010921301109212011092110199
:1001700010921001FF91EF91BF91AF919F918F91DC
:100180007F916F915F914F913F912F910F900FBE93
:100190000F901F9018951F920F920FB60F92112477
:1001A0002F933F934F935F936F937F938F939F937F
:1001B000AF93BF93EF93FF9360910E0170910F0186
:1001C0006115710531F460E0809116010E941F01F4
:1001D00004C0809114010E941F0180910E01909132
:1001E0000F010196823091052CF490930F018093BA
:1001F0000E0104C010920F0110920E01FF91EF91B9
:10020000BF91AF919F918F917F916F915F914F912E
:100210003F912F910F900FBE0F901F90189564E0A3
:100220008AE290E00E94530067E08AE290E00E9438
:10023000530060E084E290E00E94530008951F9311
:10024000CF93DF93E82FF0E0EC5FFE4F1081E62FB5
:10025000F0E0E050FF4FD08164E08BE290E00E943C
:100260005F0067E08BE290E00E945F0060E085E263
:1002700090E00E945F0085E08A95F1F70000C8E0F9
:1002800010FF06C060E085E290E00E946C0005C0AF
:1002900060E085E290E00E945F0085E08A95F1F7DA
:1002A000000067E08BE290E00E946C0085E08A9598
:1002B000F1F7000067E08BE290E00E945F00169586
:1002C000C150F1F6C8E0D0FF06C060E085E290E0E2
:1002D0000E946C0005C060E085E290E00E945F0033
:1002E00085E08A95F1F7000067E08BE290E00E94DC
:1002F0006C0085E08A95F1F7000067E08BE290E002
:100300000E945F00D695C150F1F664E08BE290E068
:100310000E946C0085E08A95F1F70000DF91CF9193
:080320001F910895F894FFCF2E
:0E03280010204080039F250D9949411F0119A7
:00000001FF
