S01400004C65642D696E7465727570742E7372656353
S11300000C9434000C943E000C943E000C943E007E
S11300100C943E000C943E000C943E000C943E0064
S11300200C943E000C943E000C943E000C943E0054
S11300300C943E000C94B6000C943E000C943E00CC
S11300400C943E000C943E000C943E000C943E0034
S11300500C943E000C943E000C943E000C943E0024
S11300600C943E000C943E0011241FBECFEFD8E048
S1130070DEBFCDBF0E9482000C94DD000C94000012
S1130080FC01408121E030E002C0220F331F6A9559
S1130090E2F7242B20830895FC01808121E030E0E5
S11300A002C0220F331F6A95E2F7922F909589239D
S11300B080838181282B21830895FC01908121E094
S11300C030E002C0220F331F6A95E2F720952923FE
S11300D020830895FC01408121E030E002C0220F1A
S11300E0331F6A95E2F7242720830895FC01808159
S11300F090E002C0959587956A95E2F7F1E08F2725
S11301008170089565E084E290E00E94400065E01B
S113011085E290E00E945D0061E087E290E00E9449
S11301204C00E1E8F0E080818A7F808380818260F6
S11301308083EFE6F0E08081816080837894C1E879
S1130140D0E061E086E290E00E947600882339F0F6
S113015088818A7F8883888182608883F2CF8881BE
S11301608B7F8883888183608883EBCF1F920F9273
S11301700FB60F9211242F933F934F935F936F9376
S11301807F938F939F93AF93BF93EF93FF9365E018
S113019085E290E00E946A00FF91EF91BF91AF91D8
S11301A09F918F917F916F915F914F913F912F918B
S11101B00F900FBE0F901F901895F894FFCF7C
S9030000FC
