S00E00006C63645F63762E73726563AB
S11300000C9434000C9451000C9451000C94510045
S11300100C9451000C9451000C9451000C94510018
S11300200C9451000C9490010C9451000C945100C8
S11300300C9451000C9451000C9451000C945100F8
S11300400C9451000C9451000C9451000C945100E8
S11300500C9451000C9451000C9451000C945100D8
S11300600C9451000C94510011241FBECFEFD8E022
S1130070DEBFCDBF11E0A0E0B1E0EAEBF4E002C0E6
S113008005900D92AE31B107D9F721E0AEE1B1E0B0
S113009001C01D92A132B207E1F70E944C010C94F9
S11300A05B020C94000085B1826085B985E08A9575
S11300B0F1F7000085B18D7F85B90895CF93C82FDE
S11300C0662321F085B1816085B903C085B18E7F37
S11300D085B98AB180618AB98AB180628AB98AB1E4
S11300E080648AB98AB180688AB98BB18F778BB9F9
S11300F08BB18F7B8BB98BB18F7D8BB98BB18F7E9D
S11301008BB9CC231CF48BB180688BB9C6FF03C0B8
S11301108BB180648BB9C5FF03C08BB180628BB98E
S1130120C4FF03C08BB180618BB90E9453008BB1B3
S11301308F778BB98BB18F7B8BB98BB18F7D8BB95B
S11301408BB18F7E8BB9C3FF03C08BB180688BB931
S1130150C2FF03C08BB180648BB9C1FF03C08BB1F4
S113016080628BB9C0FF03C08BB180618BB90E94E0
S113017053008BB180618BB98BB180628BB98BB129
S113018080648BB98BB180688BB987EB9BE0019756
S1130190F1F700C00000CF91089560E00E945E0076
S11301A0089561E00E945E000895611104C08058C2
S11301B00E94CD00089580540E94CD00089581E0EE
S11301C00E94CD00089561E00E945E000895CF93DF
S11301D0DF93FC0103C00E94E300FE01EF012196BE
S11301E080818111F8CFDF91CF910895CF93C82FEB
S11301F084B1816084B98AB180628AB984B1826031
S113020084B98AB180618AB98AB180628AB98AB1B3
S113021080648AB98AB180688AB98FEF99EF0197AF
S1130220F1F700C000008BB180628BB98BB18061A3
S11302308BB90E9453008FE19EE40197F1F700C04F
S113024000000E9453008FEF90E00197F1F700C087
S113025000000E9453008FEF90E00197F1F700C077
S113026000008BB18F7E8BB90E9453008FEF90E01A
S11302700197F1F700C0000088E20E94CD0088E0F9
S11302800E94CD000E94DF0086E00E94CD008C2FEA
S11302900E94CD00CF9108958CE00E94F60080E486
S11302A00E94CD00C0E008C0EC2FF0E0E050FF4F0A
S11302B080810E94D100CF5FC031B0F380E80E94FA
S11302C0CD0081E00E94E30060E081E00E94D5005F
S11302D080E191E00E94E70060E08BE00E94D5009D
S11302E081E60E94E30061E081E00E94D50082E69D
S11302F00E94E30061E08BE00E94D50083E60E9447
S1130300E300E1EBF0E080818D7F80838081856074
S11303108083E0E7F0E08081816080837894FFCF80
S11303201F920F920FB60F9211240F931F932F93C6
S11303303F934F935F936F937F938F939F93AF9369
S1130340BF93EF93FF93CF93DF93CDB7DEB7279798
S1130350DEBFCDBF80E290E29A83898385E0E8E145
S1130360F1E0DE01139601900D928A95E1F78091F8
S113037020018F5F80932001863008F44CC01092D6
S1130380200180911F018F5F80931F018A3038F014
S113039080911E018F5F80931E0110921F01809136
S11303A01E018C3310F010921E0100911E01009F5B
S11303B08001112460E084E00E94D50080911E0138
S11303C04AE0BE016F5F7F4F90E00E942602CE019B
S11303D001960E94E70060E087E00E94D5008091CA
S11303E01F014AE0BE016F5F7F4F90E00E9426022A
S11303F0CE0101960E94E70060E08BE00E94D500E8
S11304004AE0BE016D5F7F4FC8010E942602CE0103
S113041003960E94E70027960FB6F894DEBF0FBE3E
S1130420CDBFDF91CF91FF91EF91BF91AF919F919C
S11304308F917F916F915F914F913F912F911F9178
S11304400F910F900FBE0F901F901895BB274A3045
S113045031F4992322F4BDE2909581959F4F0C9439
S11304603202BB27FB015527AA27880F991FAA1F11
S1130470A41710F0A41B83955051B9F7A05DAA33BB
S113048008F0A95DA193009779F7B111B193119286
S1130490CB010C944B02DC01FC01672F7191772393
S11304A0E1F7329704C07C916D9370836291AE172B
S10D04B0BF07C8F30895F894FFCFC6
S11304BA001F001F001F0000040A110A04040A1185
S11104CA30303A30303A3000303030300000FC
S9030000FC
