:100000000C9434000C9451000C9451000C94510049
:100010000C9451000C9451000C9451000C9451001C
:100020000C9451000C9451000C9451000C9451000C
:100030000C9451000C9451000C9451000C945100FC
:100040000C9451000C9451000C9451000C945100EC
:100050000C9451000C9451000C9451000C945100DC
:100060000C9451000C94510011241FBECFEFD8E026
:10007000DEBFCDBF11E0A0E0B1E0EAE9F1E002C0EF
:1000800005900D92A831B107D9F721E0A8E1B1E0C0
:1000900001C01D92AA31B207E1F70E9453000C94EF
:1000A000CB000C940000259A2D982D9A20E21092F6
:1000B00019011092180180E090E0880F991FFC014F
:1000C000E050FF4F80819181843F31E0930769F0D8
:1000D00024F48A3F9105F9F04DC0883E33E0930740
:1000E00081F1803D9740D1F145C08FEF99E638E12D
:1000F000815090403040E1F700C0000085B1822778
:1001000085B98FEF94E33CE0815090403040E1F7B7
:1001100000C000002FC08FEF94E33CE0815090407E
:100120003040E1F700C0000085B1822785B98FEF2C
:1001300094E33CE0815090403040E1F700C0000083
:1001400019C085B1822785B98FEF93ED30E38150D7
:1001500090403040E1F700C000000CC085B182271C
:1001600085B98FEF97EA31E6815090403040E1F752
:1001700000C0000085B1822785B980911801909157
:100180001901019690931901809318018C30910503
:0A0190000CF493CF8CCFF894FFCF4E
:10019A00F401FA00FA00E803FA00E803FA00FA00A8
:0801AA00F401F401F401D00797
:00000001FF
