:100000000C9434000C943E000C943E000C943E0082
:100010000C943E000C943E000C943E000C943E0068
:100020000C943E000C943E000C943E000C943E0058
:100030000C943E000C943E000C943E000C943E0048
:100040000C943E000C943E000C943E000C943E0038
:100050000C943E000C943E000C943E000C943E0028
:100060000C943E000C943E0011241FBECFEFD8E04C
:10007000DEBFCDBF0E9440000C9458000C940000DD
:10008000259A2D983D9A4598459A90E24D99FECF34
:1000900085B1892785B988B1892788B92FEF39E6D5
:1000A00088E1215030408040E1F700C00000EECFF1
:0400B000F894FFCFF2
:00000001FF
