S01900006B6E696768745F72696465725F636F64652E7372656317
S11300000C9434000C943E000C943E000C943E007E
S11300100C943E000C943E000C943E000C943E0064
S11300200C943E000C943E000C943E000C943E0054
S11300300C943E000C943E000C943E000C943E0044
S11300400C943E000C943E000C943E000C943E0034
S11300500C943E000C943E000C943E000C943E0024
S11300600C943E000C943E0011241FBECFEFD8E048
S1130070DEBFCDBF0E9440000C94D5000C9400005C
S113008084B1826084B984B1846084B984B18860A5
S113009084B984B1806184B984B1806284B98AB13D
S11300A08F7D8AB985B18D7F85B985B18B7F85B9FF
S11300B085B1877F85B985B18F7E85B985B18F7DFF
S11300C085B92FEF61EE84E0215060408040E1F774
S11300D000C000008BB180628BB940E050E0411554
S11300E0510581F44D9B0EC085B1826085B99FEFA7
S11300F021EE64E0915020406040E1F700C0000030
S113010041E050E04115510581F428C085B1880FC4
S113011085B98FEF91EE64E0815090406040E1F743
S113012000C000002F5F3F4F02C021E030E02530C7
S1130130310564F321E030E00EC085B1869585B9C0
S11301408FEF91EE64E0815090406040E1F700C091
S113015000002F5F3F4F253031057CF341155105D9
S113016009F4BDCF4D9BBBCF85B18D7F85B98FEF92
S113017091EE24E0815090402040E1F700C000005F
S11301806FEF81EE94E0615080409040E1F700C051
S113019000002FEF61EE84E0215060408040E1F7E1
S11101A000C0000040E050E09ACFF894FFCF7A
S9030000FC
