S01900006B6E696768745F72696465725F636F64652E7372656317
S11300000C9434000C943E000C943E000C943E007E
S11300100C943E000C943E000C943E000C943E0064
S11300200C943E000C943E000C943E000C943E0054
S11300300C943E000C943E000C943E000C943E0044
S11300400C943E000C943E000C943E000C943E0034
S11300500C943E000C943E000C943E000C943E0024
S11300600C943E000C943E0011241FBECFEFD8E048
S1130070DEBFCDBF0E9440000C949F000C94000092
S113008084B1826084B984B1846084B984B18860A5
S113009084B984B1806184B984B1806284B98AB13D
S11300A08F7D8AB985B18E6385B92FEF49E688E1E2
S11300B0215040408040E1F700C000009FEF29E656
S11300C048E1915020404040E1F700C000008BB16E
S11300D080628BB922E030E014C045B181E090E049
S11300E002C0880F991F4A95E2F785B98FEF99E608
S11300F048E1815090404040E1F700C000002F5F8C
S11301003F4F263031054CF322E030E014C045B1B6
S113011081E090E002C0959587954A95E2F785B90C
S11301208FEF99E648E1815090404040E1F700C0EC
S113013000002F5F3F4F263031054CF3CBCFF894AE
S1050140FFCFEB
S9030000FC
